{
  "address": "0x1e0f5dA4d9F53831ddD288f299E2bE2A7F3ef9Ab",
  "abi": [
    {
      "inputs": [
        {
          "internalType": "address",
          "name": "_VRFCoordinator",
          "type": "address"
        },
        {
          "internalType": "address",
          "name": "_LinkToken",
          "type": "address"
        },
        {
          "internalType": "bytes32",
          "name": "_keyHash",
          "type": "bytes32"
        },
        {
          "internalType": "uint256",
          "name": "_fee",
          "type": "uint256"
        }
      ],
      "stateMutability": "nonpayable",
      "type": "constructor"
    },
    {
      "anonymous": false,
      "inputs": [
        {
          "indexed": true,
          "internalType": "address",
          "name": "owner",
          "type": "address"
        },
        {
          "indexed": true,
          "internalType": "address",
          "name": "approved",
          "type": "address"
        },
        {
          "indexed": true,
          "internalType": "uint256",
          "name": "tokenId",
          "type": "uint256"
        }
      ],
      "name": "Approval",
      "type": "event"
    },
    {
      "anonymous": false,
      "inputs": [
        {
          "indexed": true,
          "internalType": "address",
          "name": "owner",
          "type": "address"
        },
        {
          "indexed": true,
          "internalType": "address",
          "name": "operator",
          "type": "address"
        },
        {
          "indexed": false,
          "internalType": "bool",
          "name": "approved",
          "type": "bool"
        }
      ],
      "name": "ApprovalForAll",
      "type": "event"
    },
    {
      "anonymous": false,
      "inputs": [
        {
          "indexed": true,
          "internalType": "uint256",
          "name": "tokenId",
          "type": "uint256"
        },
        {
          "indexed": false,
          "internalType": "string",
          "name": "tokenURI",
          "type": "string"
        }
      ],
      "name": "CreatedRandomSVG",
      "type": "event"
    },
    {
      "anonymous": false,
      "inputs": [
        {
          "indexed": true,
          "internalType": "uint256",
          "name": "tokenId",
          "type": "uint256"
        },
        {
          "indexed": false,
          "internalType": "uint256",
          "name": "randomNumber",
          "type": "uint256"
        }
      ],
      "name": "CreatedUnfinishedRandomSVG",
      "type": "event"
    },
    {
      "anonymous": false,
      "inputs": [
        {
          "indexed": true,
          "internalType": "address",
          "name": "from",
          "type": "address"
        },
        {
          "indexed": true,
          "internalType": "address",
          "name": "to",
          "type": "address"
        },
        {
          "indexed": true,
          "internalType": "uint256",
          "name": "tokenId",
          "type": "uint256"
        }
      ],
      "name": "Transfer",
      "type": "event"
    },
    {
      "anonymous": false,
      "inputs": [
        {
          "indexed": true,
          "internalType": "bytes32",
          "name": "requestId",
          "type": "bytes32"
        },
        {
          "indexed": true,
          "internalType": "uint256",
          "name": "tokenId",
          "type": "uint256"
        }
      ],
      "name": "requestedRandomSVG",
      "type": "event"
    },
    {
      "inputs": [
        {
          "internalType": "address",
          "name": "to",
          "type": "address"
        },
        {
          "internalType": "uint256",
          "name": "tokenId",
          "type": "uint256"
        }
      ],
      "name": "approve",
      "outputs": [],
      "stateMutability": "nonpayable",
      "type": "function"
    },
    {
      "inputs": [
        {
          "internalType": "address",
          "name": "owner",
          "type": "address"
        }
      ],
      "name": "balanceOf",
      "outputs": [
        {
          "internalType": "uint256",
          "name": "",
          "type": "uint256"
        }
      ],
      "stateMutability": "view",
      "type": "function"
    },
    {
      "inputs": [
        {
          "internalType": "uint256",
          "name": "",
          "type": "uint256"
        }
      ],
      "name": "colors",
      "outputs": [
        {
          "internalType": "string",
          "name": "",
          "type": "string"
        }
      ],
      "stateMutability": "view",
      "type": "function"
    },
    {
      "inputs": [],
      "name": "create",
      "outputs": [
        {
          "internalType": "bytes32",
          "name": "requestId",
          "type": "bytes32"
        }
      ],
      "stateMutability": "nonpayable",
      "type": "function"
    },
    {
      "inputs": [],
      "name": "fee",
      "outputs": [
        {
          "internalType": "uint256",
          "name": "",
          "type": "uint256"
        }
      ],
      "stateMutability": "view",
      "type": "function"
    },
    {
      "inputs": [
        {
          "internalType": "uint256",
          "name": "_tokenId",
          "type": "uint256"
        }
      ],
      "name": "finishMint",
      "outputs": [],
      "stateMutability": "nonpayable",
      "type": "function"
    },
    {
      "inputs": [
        {
          "internalType": "string",
          "name": "_imageURI",
          "type": "string"
        }
      ],
      "name": "formatTokenURI",
      "outputs": [
        {
          "internalType": "string",
          "name": "",
          "type": "string"
        }
      ],
      "stateMutability": "pure",
      "type": "function"
    },
    {
      "inputs": [
        {
          "internalType": "uint256",
          "name": "_randomNumber",
          "type": "uint256"
        }
      ],
      "name": "generatePath",
      "outputs": [
        {
          "internalType": "string",
          "name": "pathSvg",
          "type": "string"
        }
      ],
      "stateMutability": "view",
      "type": "function"
    },
    {
      "inputs": [
        {
          "internalType": "uint256",
          "name": "_randomNumber",
          "type": "uint256"
        }
      ],
      "name": "generatePathCommand",
      "outputs": [
        {
          "internalType": "string",
          "name": "pathCommand",
          "type": "string"
        }
      ],
      "stateMutability": "view",
      "type": "function"
    },
    {
      "inputs": [
        {
          "internalType": "uint256",
          "name": "_randomNumber",
          "type": "uint256"
        }
      ],
      "name": "generateSVG",
      "outputs": [
        {
          "internalType": "string",
          "name": "finalSvg",
          "type": "string"
        }
      ],
      "stateMutability": "view",
      "type": "function"
    },
    {
      "inputs": [
        {
          "internalType": "uint256",
          "name": "tokenId",
          "type": "uint256"
        }
      ],
      "name": "getApproved",
      "outputs": [
        {
          "internalType": "address",
          "name": "",
          "type": "address"
        }
      ],
      "stateMutability": "view",
      "type": "function"
    },
    {
      "inputs": [
        {
          "internalType": "address",
          "name": "owner",
          "type": "address"
        },
        {
          "internalType": "address",
          "name": "operator",
          "type": "address"
        }
      ],
      "name": "isApprovedForAll",
      "outputs": [
        {
          "internalType": "bool",
          "name": "",
          "type": "bool"
        }
      ],
      "stateMutability": "view",
      "type": "function"
    },
    {
      "inputs": [],
      "name": "keyHash",
      "outputs": [
        {
          "internalType": "bytes32",
          "name": "",
          "type": "bytes32"
        }
      ],
      "stateMutability": "view",
      "type": "function"
    },
    {
      "inputs": [],
      "name": "maxNumberOfPathCommands",
      "outputs": [
        {
          "internalType": "uint256",
          "name": "",
          "type": "uint256"
        }
      ],
      "stateMutability": "view",
      "type": "function"
    },
    {
      "inputs": [],
      "name": "maxNumberOfPaths",
      "outputs": [
        {
          "internalType": "uint256",
          "name": "",
          "type": "uint256"
        }
      ],
      "stateMutability": "view",
      "type": "function"
    },
    {
      "inputs": [],
      "name": "name",
      "outputs": [
        {
          "internalType": "string",
          "name": "",
          "type": "string"
        }
      ],
      "stateMutability": "view",
      "type": "function"
    },
    {
      "inputs": [
        {
          "internalType": "uint256",
          "name": "tokenId",
          "type": "uint256"
        }
      ],
      "name": "ownerOf",
      "outputs": [
        {
          "internalType": "address",
          "name": "",
          "type": "address"
        }
      ],
      "stateMutability": "view",
      "type": "function"
    },
    {
      "inputs": [
        {
          "internalType": "uint256",
          "name": "",
          "type": "uint256"
        }
      ],
      "name": "pathCommands",
      "outputs": [
        {
          "internalType": "string",
          "name": "",
          "type": "string"
        }
      ],
      "stateMutability": "view",
      "type": "function"
    },
    {
      "inputs": [
        {
          "internalType": "bytes32",
          "name": "requestId",
          "type": "bytes32"
        },
        {
          "internalType": "uint256",
          "name": "randomness",
          "type": "uint256"
        }
      ],
      "name": "rawFulfillRandomness",
      "outputs": [],
      "stateMutability": "nonpayable",
      "type": "function"
    },
    {
      "inputs": [
        {
          "internalType": "bytes32",
          "name": "",
          "type": "bytes32"
        }
      ],
      "name": "requestIdToSender",
      "outputs": [
        {
          "internalType": "address",
          "name": "",
          "type": "address"
        }
      ],
      "stateMutability": "view",
      "type": "function"
    },
    {
      "inputs": [
        {
          "internalType": "bytes32",
          "name": "",
          "type": "bytes32"
        }
      ],
      "name": "requestIdToTokenId",
      "outputs": [
        {
          "internalType": "uint256",
          "name": "",
          "type": "uint256"
        }
      ],
      "stateMutability": "view",
      "type": "function"
    },
    {
      "inputs": [
        {
          "internalType": "address",
          "name": "from",
          "type": "address"
        },
        {
          "internalType": "address",
          "name": "to",
          "type": "address"
        },
        {
          "internalType": "uint256",
          "name": "tokenId",
          "type": "uint256"
        }
      ],
      "name": "safeTransferFrom",
      "outputs": [],
      "stateMutability": "nonpayable",
      "type": "function"
    },
    {
      "inputs": [
        {
          "internalType": "address",
          "name": "from",
          "type": "address"
        },
        {
          "internalType": "address",
          "name": "to",
          "type": "address"
        },
        {
          "internalType": "uint256",
          "name": "tokenId",
          "type": "uint256"
        },
        {
          "internalType": "bytes",
          "name": "_data",
          "type": "bytes"
        }
      ],
      "name": "safeTransferFrom",
      "outputs": [],
      "stateMutability": "nonpayable",
      "type": "function"
    },
    {
      "inputs": [
        {
          "internalType": "address",
          "name": "operator",
          "type": "address"
        },
        {
          "internalType": "bool",
          "name": "approved",
          "type": "bool"
        }
      ],
      "name": "setApprovalForAll",
      "outputs": [],
      "stateMutability": "nonpayable",
      "type": "function"
    },
    {
      "inputs": [],
      "name": "size",
      "outputs": [
        {
          "internalType": "uint256",
          "name": "",
          "type": "uint256"
        }
      ],
      "stateMutability": "view",
      "type": "function"
    },
    {
      "inputs": [
        {
          "internalType": "bytes4",
          "name": "interfaceId",
          "type": "bytes4"
        }
      ],
      "name": "supportsInterface",
      "outputs": [
        {
          "internalType": "bool",
          "name": "",
          "type": "bool"
        }
      ],
      "stateMutability": "view",
      "type": "function"
    },
    {
      "inputs": [
        {
          "internalType": "string",
          "name": "_svg",
          "type": "string"
        }
      ],
      "name": "svgToImageURI",
      "outputs": [
        {
          "internalType": "string",
          "name": "",
          "type": "string"
        }
      ],
      "stateMutability": "pure",
      "type": "function"
    },
    {
      "inputs": [],
      "name": "symbol",
      "outputs": [
        {
          "internalType": "string",
          "name": "",
          "type": "string"
        }
      ],
      "stateMutability": "view",
      "type": "function"
    },
    {
      "inputs": [],
      "name": "tokenCounter",
      "outputs": [
        {
          "internalType": "uint256",
          "name": "",
          "type": "uint256"
        }
      ],
      "stateMutability": "view",
      "type": "function"
    },
    {
      "inputs": [
        {
          "internalType": "uint256",
          "name": "",
          "type": "uint256"
        }
      ],
      "name": "tokenIdToRandomNumber",
      "outputs": [
        {
          "internalType": "uint256",
          "name": "",
          "type": "uint256"
        }
      ],
      "stateMutability": "view",
      "type": "function"
    },
    {
      "inputs": [
        {
          "internalType": "uint256",
          "name": "tokenId",
          "type": "uint256"
        }
      ],
      "name": "tokenURI",
      "outputs": [
        {
          "internalType": "string",
          "name": "",
          "type": "string"
        }
      ],
      "stateMutability": "view",
      "type": "function"
    },
    {
      "inputs": [
        {
          "internalType": "address",
          "name": "from",
          "type": "address"
        },
        {
          "internalType": "address",
          "name": "to",
          "type": "address"
        },
        {
          "internalType": "uint256",
          "name": "tokenId",
          "type": "uint256"
        }
      ],
      "name": "transferFrom",
      "outputs": [],
      "stateMutability": "nonpayable",
      "type": "function"
    }
  ],
  "transactionHash": "0xc16bd2e53785921e7049805eb4c64007cd68087c9fa9a43a3cf41306a0645a9a",
  "args": [
    "0xb3dCcb4Cf7a26f6cf6B120Cf5A73875B7BBc655B",
    "0x01BE23585060835E02B77ef475b0Cc51aA1e0709",
    "0x2ed0feb3e7fd2022120aa84fab1945545a9f2ffc9076fd6156fa96eaff4c1311",
    "100000000000000000"
  ],
  "solcInputHash": "4154cf7650fd1863cae6a6c5d0aec4f2",
  "bytecode": "0x60c06040523480156200001157600080fd5b5060405162005103380380620051038339818101604052810190620000379190620005bb565b83836040518060400160405280600d81526020017f52616e646f6d535647204e4654000000000000000000000000000000000000008152506040518060400160405280600581526020017f72734e46540000000000000000000000000000000000000000000000000000008152508160009080519060200190620000bd9291906200038a565b508060019080519060200190620000d69291906200038a565b5050508173ffffffffffffffffffffffffffffffffffffffff1660a08173ffffffffffffffffffffffffffffffffffffffff1660601b815250508073ffffffffffffffffffffffffffffffffffffffff1660808173ffffffffffffffffffffffffffffffffffffffff1660601b8152505050508060098190555081600881905550600a600b819055506005600c819055506101f4600d8190555060405180604001604052806040518060400160405280600181526020017f4d0000000000000000000000000000000000000000000000000000000000000081525081526020016040518060400160405280600181526020017f4c00000000000000000000000000000000000000000000000000000000000000815250815250600e906002620002019291906200041b565b506040518060c001604052806040518060400160405280600381526020017f726564000000000000000000000000000000000000000000000000000000000081525081526020016040518060400160405280600481526020017f626c75650000000000000000000000000000000000000000000000000000000081525081526020016040518060400160405280600581526020017f677265656e00000000000000000000000000000000000000000000000000000081525081526020016040518060400160405280600681526020017f79656c6c6f77000000000000000000000000000000000000000000000000000081525081526020016040518060400160405280600581526020017f626c61636b00000000000000000000000000000000000000000000000000000081525081526020016040518060400160405280600581526020017f7768697465000000000000000000000000000000000000000000000000000000815250815250600f9060066200037f92919062000482565b505050505062000722565b82805462000398906200066f565b90600052602060002090601f016020900481019282620003bc576000855562000408565b82601f10620003d757805160ff191683800117855562000408565b8280016001018555821562000408579182015b8281111562000407578251825591602001919060010190620003ea565b5b509050620004179190620004e9565b5090565b8280548282559060005260206000209081019282156200046f579160200282015b828111156200046e5782518290805190602001906200045d9291906200038a565b50916020019190600101906200043c565b5b5090506200047e919062000508565b5090565b828054828255906000526020600020908101928215620004d6579160200282015b82811115620004d5578251829080519060200190620004c49291906200038a565b5091602001919060010190620004a3565b5b509050620004e5919062000508565b5090565b5b8082111562000504576000816000905550600101620004ea565b5090565b5b808211156200052c576000818162000522919062000530565b5060010162000509565b5090565b5080546200053e906200066f565b6000825580601f1062000552575062000573565b601f016020900490600052602060002090810190620005729190620004e9565b5b50565b6000815190506200058781620006d4565b92915050565b6000815190506200059e81620006ee565b92915050565b600081519050620005b58162000708565b92915050565b60008060008060808587031215620005d257600080fd5b6000620005e28782880162000576565b9450506020620005f58782880162000576565b935050604062000608878288016200058d565b92505060606200061b87828801620005a4565b91505092959194509250565b6000620006348262000645565b9050919050565b6000819050919050565b600073ffffffffffffffffffffffffffffffffffffffff82169050919050565b6000819050919050565b600060028204905060018216806200068857607f821691505b602082108114156200069f576200069e620006a5565b5b50919050565b7f4e487b7100000000000000000000000000000000000000000000000000000000600052602260045260246000fd5b620006df8162000627565b8114620006eb57600080fd5b50565b620006f9816200063b565b81146200070557600080fd5b50565b620007138162000665565b81146200071f57600080fd5b50565b60805160601c60a05160601c6149ae62000755600039600081816111a401526125660152600061252a01526149ae6000f3fe608060405234801561001057600080fd5b50600436106101f05760003560e01c806371aee1931161010f578063bd11f69d116100a2578063d082e38111610071578063d082e3811461063d578063ddca3f431461065b578063e985e9c514610679578063efc81a8c146106a9576101f0565b8063bd11f69d1461058f578063c21bf36f146105bf578063c68b49d1146105dd578063c87b56dd1461060d576101f0565b806395d89b41116100de57806395d89b41146105095780639c1cd79514610527578063a22cb46514610557578063b88d4fde14610573576101f0565b806371aee1931461046f57806394985ddd1461049f578063949d225d146104bb578063955968d4146104d9576101f0565b806333af598911610187578063624194c711610156578063624194c7146103c35780636352211e146103df5780636dcee4ca1461040f57806370a082311461043f576101f0565b806333af59891461033b57806342842e0e1461036b57806348e896ab1461038757806361728f39146103a5576101f0565b8063219c0eee116101c3578063219c0eee1461028f57806322881f88146102bf57806323b872dd146102ef57806330d871c61461030b576101f0565b806301ffc9a7146101f557806306fdde0314610225578063081812fc14610243578063095ea7b314610273575b600080fd5b61020f600480360381019061020a91906130d5565b6106c7565b60405161021c9190613940565b60405180910390f35b61022d6107a9565b60405161023a91906139e4565b60405180910390f35b61025d60048036038101906102589190613168565b61083b565b60405161026a919061389b565b60405180910390f35b61028d6004803603810190610288919061300b565b6108c0565b005b6102a960048036038101906102a49190613070565b6109d8565b6040516102b6919061389b565b60405180910390f35b6102d960048036038101906102d49190613070565b610a0b565b6040516102e69190613c86565b60405180910390f35b61030960048036038101906103049190612f05565b610a23565b005b61032560048036038101906103209190613127565b610a83565b60405161033291906139e4565b60405180910390f35b61035560048036038101906103509190613168565b610b1c565b60405161036291906139e4565b60405180910390f35b61038560048036038101906103809190612f05565b610d0e565b005b61038f610d2e565b60405161039c9190613c86565b60405180910390f35b6103ad610d34565b6040516103ba919061395b565b60405180910390f35b6103dd60048036038101906103d89190613168565b610d3a565b005b6103f960048036038101906103f49190613168565b610ea9565b604051610406919061389b565b60405180910390f35b61042960048036038101906104249190613168565b610f5b565b60405161043691906139e4565b60405180910390f35b61045960048036038101906104549190612ea0565b61105d565b6040516104669190613c86565b60405180910390f35b61048960048036038101906104849190613127565b611115565b60405161049691906139e4565b60405180910390f35b6104b960048036038101906104b49190613099565b6111a2565b005b6104c361123e565b6040516104d09190613c86565b60405180910390f35b6104f360048036038101906104ee9190613168565b611244565b60405161050091906139e4565b60405180910390f35b6105116112f0565b60405161051e91906139e4565b60405180910390f35b610541600480360381019061053c9190613168565b611382565b60405161054e9190613c86565b60405180910390f35b610571600480360381019061056c9190612fcf565b61139a565b005b61058d60048036038101906105889190612f54565b6113b0565b005b6105a960048036038101906105a49190613168565b611412565b6040516105b691906139e4565b60405180910390f35b6105c76114be565b6040516105d49190613c86565b60405180910390f35b6105f760048036038101906105f29190613168565b6114c4565b60405161060491906139e4565b60405180910390f35b61062760048036038101906106229190613168565b611677565b60405161063491906139e4565b60405180910390f35b6106456117c9565b6040516106529190613c86565b60405180910390f35b6106636117cf565b6040516106709190613c86565b60405180910390f35b610693600480360381019061068e9190612ec9565b6117d5565b6040516106a09190613940565b60405180910390f35b6106b1611869565b6040516106be919061395b565b60405180910390f35b60007f80ac58cd000000000000000000000000000000000000000000000000000000007bffffffffffffffffffffffffffffffffffffffffffffffffffffffff1916827bffffffffffffffffffffffffffffffffffffffffffffffffffffffff1916148061079257507f5b5e139f000000000000000000000000000000000000000000000000000000007bffffffffffffffffffffffffffffffffffffffffffffffffffffffff1916827bffffffffffffffffffffffffffffffffffffffffffffffffffffffff1916145b806107a257506107a182611936565b5b9050919050565b6060600080546107b890613fad565b80601f01602080910402602001604051908101604052809291908181526020018280546107e490613fad565b80156108315780601f1061080657610100808354040283529160200191610831565b820191906000526020600020905b81548152906001019060200180831161081457829003601f168201915b5050505050905090565b6000610846826119a0565b610885576040517f08c379a000000000000000000000000000000000000000000000000000000000815260040161087c90613b86565b60405180910390fd5b6004600083815260200190815260200160002060009054906101000a900473ffffffffffffffffffffffffffffffffffffffff169050919050565b60006108cb82610ea9565b90508073ffffffffffffffffffffffffffffffffffffffff168373ffffffffffffffffffffffffffffffffffffffff16141561093c576040517f08c379a000000000000000000000000000000000000000000000000000000000815260040161093390613c06565b60405180910390fd5b8073ffffffffffffffffffffffffffffffffffffffff1661095b611a0c565b73ffffffffffffffffffffffffffffffffffffffff16148061098a575061098981610984611a0c565b6117d5565b5b6109c9576040517f08c379a00000000000000000000000000000000000000000000000000000000081526004016109c090613ac6565b60405180910390fd5b6109d38383611a14565b505050565b60106020528060005260406000206000915054906101000a900473ffffffffffffffffffffffffffffffffffffffff1681565b60116020528060005260406000206000915090505481565b610a34610a2e611a0c565b82611acd565b610a73576040517f08c379a0000000000000000000000000000000000000000000000000000000008152600401610a6a90613c46565b60405180910390fd5b610a7e838383611bab565b505050565b606060006040518060400160405280601a81526020017f646174613a696d6167652f7376672b786d6c3b6261736536342c00000000000081525090506000610ae984604051602001610ad5919061372a565b604051602081830303815290604052611e07565b905060008282604051602001610b00929190613741565b6040516020818303038152906040529050809350505050919050565b606060006001600c5484610b30919061406d565b610b3a9190613d94565b90506040518060400160405280600981526020017f3c7061746820643d270000000000000000000000000000000000000000000000815250915060005b81811015610c025760008482600d54610b909190613d94565b604051602001610ba1929190613ca1565b6040516020818303038152906040528051906020012060001c90506000610bc7826114c4565b90508481604051602001610bdc929190613741565b604051602081830303815290604052945050508080610bfa90614010565b915050610b77565b506000600f808054905085610c17919061406d565b81548110610c4e577f4e487b7100000000000000000000000000000000000000000000000000000000600052603260045260246000fd5b906000526020600020018054610c6390613fad565b80601f0160208091040260200160405190810160405280929190818152602001828054610c8f90613fad565b8015610cdc5780601f10610cb157610100808354040283529160200191610cdc565b820191906000526020600020905b815481529060010190602001808311610cbf57829003601f168201915b505050505090508281604051602001610cf6929190613765565b60405160208183030381529060405292505050919050565b610d29838383604051806020016040528060008152506113b0565b505050565b600c5481565b60085481565b6000610d4582611677565b511115610d87576040517f08c379a0000000000000000000000000000000000000000000000000000000008152600401610d7e90613c26565b60405180910390fd5b80600a5411610dcb576040517f08c379a0000000000000000000000000000000000000000000000000000000008152600401610dc290613a46565b60405180910390fd5b6000601260008381526020019081526020016000205411610e21576040517f08c379a0000000000000000000000000000000000000000000000000000000008152600401610e1890613c66565b60405180910390fd5b6000601260008381526020019081526020016000205490506000610e4482610f5b565b90506000610e5182610a83565b90506000610e5e82611115565b9050610e6a8582611fa6565b847f15a6487b7915a7116ce2a61d43b17e9b47484b1931f3c79f2f3d139b307b389384604051610e9a91906139e4565b60405180910390a25050505050565b6000806002600084815260200190815260200160002060009054906101000a900473ffffffffffffffffffffffffffffffffffffffff169050600073ffffffffffffffffffffffffffffffffffffffff168173ffffffffffffffffffffffffffffffffffffffff161415610f52576040517f08c379a0000000000000000000000000000000000000000000000000000000008152600401610f4990613b06565b60405180910390fd5b80915050919050565b606060006001600b5484610f6f919061406d565b610f799190613d94565b9050610f86600d5461201a565b610f91600d5461201a565b604051602001610fa2929190613856565b604051602081830303815290604052915060005b818110156110345760008482604051602001610fd3929190613ca1565b6040516020818303038152906040528051906020012060001c90506000610ff982610b1c565b9050848160405160200161100e929190613741565b60405160208183030381529060405294505050808061102c90614010565b915050610fb6565b508160405160200161104691906137e6565b604051602081830303815290604052915050919050565b60008073ffffffffffffffffffffffffffffffffffffffff168273ffffffffffffffffffffffffffffffffffffffff1614156110ce576040517f08c379a00000000000000000000000000000000000000000000000000000000081526004016110c590613ae6565b60405180910390fd5b600360008373ffffffffffffffffffffffffffffffffffffffff1673ffffffffffffffffffffffffffffffffffffffff168152602001908152602001600020549050919050565b606060006040518060400160405280601d81526020017f646174613a6170706c69636174696f6e2f6a736f6e3b6261736536342c00000081525090508061117a846040516020016111669190613808565b604051602081830303815290604052611e07565b60405160200161118b929190613741565b604051602081830303815290604052915050919050565b7f000000000000000000000000000000000000000000000000000000000000000073ffffffffffffffffffffffffffffffffffffffff163373ffffffffffffffffffffffffffffffffffffffff1614611230576040517f08c379a000000000000000000000000000000000000000000000000000000000815260040161122790613be6565b60405180910390fd5b61123a82826121ef565b5050565b600d5481565b600e818154811061125457600080fd5b90600052602060002001600091509050805461126f90613fad565b80601f016020809104026020016040519081016040528092919081815260200182805461129b90613fad565b80156112e85780601f106112bd576101008083540402835291602001916112e8565b820191906000526020600020905b8154815290600101906020018083116112cb57829003601f168201915b505050505081565b6060600180546112ff90613fad565b80601f016020809104026020016040519081016040528092919081815260200182805461132b90613fad565b80156113785780601f1061134d57610100808354040283529160200191611378565b820191906000526020600020905b81548152906001019060200180831161135b57829003601f168201915b5050505050905090565b60126020528060005260406000206000915090505481565b6113ac6113a5611a0c565b838361229f565b5050565b6113c16113bb611a0c565b83611acd565b611400576040517f08c379a00000000000000000000000000000000000000000000000000000000081526004016113f790613c46565b60405180910390fd5b61140c8484848461240c565b50505050565b600f818154811061142257600080fd5b90600052602060002001600091509050805461143d90613fad565b80601f016020809104026020016040519081016040528092919081815260200182805461146990613fad565b80156114b65780601f1061148b576101008083540402835291602001916114b6565b820191906000526020600020905b81548152906001019060200180831161149957829003601f168201915b505050505081565b600b5481565b6060600e8080549050836114d8919061406d565b8154811061150f577f4e487b7100000000000000000000000000000000000000000000000000000000600052603260045260246000fd5b90600052602060002001805461152490613fad565b80601f016020809104026020016040519081016040528092919081815260200182805461155090613fad565b801561159d5780601f106115725761010080835404028352916020019161159d565b820191906000526020600020905b81548152906001019060200180831161158057829003601f168201915b505050505090506000600d54836002600d546115b99190613e52565b6040516020016115ca929190613ca1565b6040516020818303038152906040528051906020012060001c6115ed919061406d565b90506000600d54846003600d546116049190613e52565b604051602001611615929190613ca1565b6040516020818303038152906040528051906020012060001c611638919061406d565b9050826116448361201a565b61164d8361201a565b60405160200161165f9392919061379f565b60405160208183030381529060405292505050919050565b6060611682826119a0565b6116c1576040517f08c379a00000000000000000000000000000000000000000000000000000000081526004016116b890613b66565b60405180910390fd5b60006006600084815260200190815260200160002080546116e190613fad565b80601f016020809104026020016040519081016040528092919081815260200182805461170d90613fad565b801561175a5780601f1061172f5761010080835404028352916020019161175a565b820191906000526020600020905b81548152906001019060200180831161173d57829003601f168201915b50505050509050600061176b612468565b90506000815114156117815781925050506117c4565b6000825111156117b657808260405160200161179e929190613741565b604051602081830303815290604052925050506117c4565b6117bf8461247f565b925050505b919050565b600a5481565b60095481565b6000600560008473ffffffffffffffffffffffffffffffffffffffff1673ffffffffffffffffffffffffffffffffffffffff16815260200190815260200160002060008373ffffffffffffffffffffffffffffffffffffffff1673ffffffffffffffffffffffffffffffffffffffff16815260200190815260200160002060009054906101000a900460ff16905092915050565b6000611879600854600954612526565b9050336010600083815260200190815260200160002060006101000a81548173ffffffffffffffffffffffffffffffffffffffff021916908373ffffffffffffffffffffffffffffffffffffffff1602179055506000600a549050806011600084815260200190815260200160002081905550600a60008154809291906118ff90614010565b919050555080827fb97343f1f2afc4959f818046ccae28fd7b05fcd2b7a7dc651cbb52a096cae03560405160405180910390a35090565b60007f01ffc9a7000000000000000000000000000000000000000000000000000000007bffffffffffffffffffffffffffffffffffffffffffffffffffffffff1916827bffffffffffffffffffffffffffffffffffffffffffffffffffffffff1916149050919050565b60008073ffffffffffffffffffffffffffffffffffffffff166002600084815260200190815260200160002060009054906101000a900473ffffffffffffffffffffffffffffffffffffffff1673ffffffffffffffffffffffffffffffffffffffff1614159050919050565b600033905090565b816004600083815260200190815260200160002060006101000a81548173ffffffffffffffffffffffffffffffffffffffff021916908373ffffffffffffffffffffffffffffffffffffffff160217905550808273ffffffffffffffffffffffffffffffffffffffff16611a8783610ea9565b73ffffffffffffffffffffffffffffffffffffffff167f8c5be1e5ebec7d5bd14f71427d1e84f3dd0314c0f7b2291e5b200ac8c7c3b92560405160405180910390a45050565b6000611ad8826119a0565b611b17576040517f08c379a0000000000000000000000000000000000000000000000000000000008152600401611b0e90613aa6565b60405180910390fd5b6000611b2283610ea9565b90508073ffffffffffffffffffffffffffffffffffffffff168473ffffffffffffffffffffffffffffffffffffffff161480611b9157508373ffffffffffffffffffffffffffffffffffffffff16611b798461083b565b73ffffffffffffffffffffffffffffffffffffffff16145b80611ba25750611ba181856117d5565b5b91505092915050565b8273ffffffffffffffffffffffffffffffffffffffff16611bcb82610ea9565b73ffffffffffffffffffffffffffffffffffffffff1614611c21576040517f08c379a0000000000000000000000000000000000000000000000000000000008152600401611c1890613ba6565b60405180910390fd5b600073ffffffffffffffffffffffffffffffffffffffff168273ffffffffffffffffffffffffffffffffffffffff161415611c91576040517f08c379a0000000000000000000000000000000000000000000000000000000008152600401611c8890613a66565b60405180910390fd5b611c9c838383612688565b611ca7600082611a14565b6001600360008573ffffffffffffffffffffffffffffffffffffffff1673ffffffffffffffffffffffffffffffffffffffff1681526020019081526020016000206000828254611cf79190613eac565b925050819055506001600360008473ffffffffffffffffffffffffffffffffffffffff1673ffffffffffffffffffffffffffffffffffffffff1681526020019081526020016000206000828254611d4e9190613d94565b92505081905550816002600083815260200190815260200160002060006101000a81548173ffffffffffffffffffffffffffffffffffffffff021916908373ffffffffffffffffffffffffffffffffffffffff160217905550808273ffffffffffffffffffffffffffffffffffffffff168473ffffffffffffffffffffffffffffffffffffffff167fddf252ad1be2c89b69c2b068fc378daa952ba7f163c4a11628f55a4df523b3ef60405160405180910390a4505050565b6060600082511415611e2a57604051806020016040528060008152509050611fa1565b60006040518060600160405280604081526020016149396040913990506000600360028551611e599190613d94565b611e639190613e21565b6004611e6f9190613e52565b90506000602082611e809190613d94565b67ffffffffffffffff811115611ebf577f4e487b7100000000000000000000000000000000000000000000000000000000600052604160045260246000fd5b6040519080825280601f01601f191660200182016040528015611ef15781602001600182028036833780820191505090505b509050818152600183018586518101602084015b81831015611f60576003830192508251603f8160121c168501518253600182019150603f81600c1c168501518253600182019150603f8160061c168501518253600182019150603f8116850151825360018201915050611f05565b600389510660018114611f7a5760028114611f8a57611f95565b613d3d60f01b6002830352611f95565b603d60f81b60018303525b50505050508093505050505b919050565b611faf826119a0565b611fee576040517f08c379a0000000000000000000000000000000000000000000000000000000008152600401611fe590613b26565b60405180910390fd5b80600660008481526020019081526020016000209080519060200190612015929190612c9a565b505050565b60606000821415612062576040518060400160405280600181526020017f300000000000000000000000000000000000000000000000000000000000000081525090506121ea565b600082905060005b6000821461209457808061207d90614010565b915050600a8261208d9190613e21565b915061206a565b60008167ffffffffffffffff8111156120d6577f4e487b7100000000000000000000000000000000000000000000000000000000600052604160045260246000fd5b6040519080825280601f01601f1916602001820160405280156121085781602001600182028036833780820191505090505b50905060008290505b600086146121e2576001816121269190613eac565b90506000600a80886121389190613e21565b6121429190613e52565b8761214d9190613eac565b60306121599190613dea565b905060008160f81b90508084848151811061219d577f4e487b7100000000000000000000000000000000000000000000000000000000600052603260045260246000fd5b60200101907effffffffffffffffffffffffffffffffffffffffffffffffffffffffffffff1916908160001a905350600a886121d99190613e21565b97505050612111565b819450505050505b919050565b60006010600084815260200190815260200160002060009054906101000a900473ffffffffffffffffffffffffffffffffffffffff169050600060116000858152602001908152602001600020549050612249828261268d565b826012600083815260200190815260200160002081905550807faad5362ce528ed941024b95d4c18dfd49b8503e1f586a5c353631d98c2af41b7846040516122919190613c86565b60405180910390a250505050565b8173ffffffffffffffffffffffffffffffffffffffff168373ffffffffffffffffffffffffffffffffffffffff16141561230e576040517f08c379a000000000000000000000000000000000000000000000000000000000815260040161230590613a86565b60405180910390fd5b80600560008573ffffffffffffffffffffffffffffffffffffffff1673ffffffffffffffffffffffffffffffffffffffff16815260200190815260200160002060008473ffffffffffffffffffffffffffffffffffffffff1673ffffffffffffffffffffffffffffffffffffffff16815260200190815260200160002060006101000a81548160ff0219169083151502179055508173ffffffffffffffffffffffffffffffffffffffff168373ffffffffffffffffffffffffffffffffffffffff167f17307eab39ab6107e8899845ad3d59bd9653f200f220920489ca2b5937696c31836040516123ff9190613940565b60405180910390a3505050565b612417848484611bab565b612423848484846126ab565b612462576040517f08c379a000000000000000000000000000000000000000000000000000000000815260040161245990613a06565b60405180910390fd5b50505050565b606060405180602001604052806000815250905090565b606061248a826119a0565b6124c9576040517f08c379a00000000000000000000000000000000000000000000000000000000081526004016124c090613bc6565b60405180910390fd5b60006124d3612468565b905060008151116124f3576040518060200160405280600081525061251e565b806124fd84612842565b60405160200161250e929190613741565b6040516020818303038152906040525b915050919050565b60007f000000000000000000000000000000000000000000000000000000000000000073ffffffffffffffffffffffffffffffffffffffff16634000aea07f00000000000000000000000000000000000000000000000000000000000000008486600060405160200161259a929190613976565b6040516020818303038152906040526040518463ffffffff1660e01b81526004016125c793929190613902565b602060405180830381600087803b1580156125e157600080fd5b505af11580156125f5573d6000803e3d6000fd5b505050506040513d601f19601f820116820180604052508101906126199190613047565b50600061263c8460003060076000898152602001908152602001600020546129ef565b90506001600760008681526020019081526020016000205461265e9190613d94565b600760008681526020019081526020016000208190555061267f8482612a2b565b91505092915050565b505050565b6126a7828260405180602001604052806000815250612a5e565b5050565b60006126cc8473ffffffffffffffffffffffffffffffffffffffff16612ab9565b15612835578373ffffffffffffffffffffffffffffffffffffffff1663150b7a026126f5611a0c565b8786866040518563ffffffff1660e01b815260040161271794939291906138b6565b602060405180830381600087803b15801561273157600080fd5b505af192505050801561276257506040513d601f19601f8201168201806040525081019061275f91906130fe565b60015b6127e5573d8060008114612792576040519150601f19603f3d011682016040523d82523d6000602084013e612797565b606091505b506000815114156127dd576040517f08c379a00000000000000000000000000000000000000000000000000000000081526004016127d490613a06565b60405180910390fd5b805181602001fd5b63150b7a0260e01b7bffffffffffffffffffffffffffffffffffffffffffffffffffffffff1916817bffffffffffffffffffffffffffffffffffffffffffffffffffffffff19161491505061283a565b600190505b949350505050565b6060600082141561288a576040518060400160405280600181526020017f300000000000000000000000000000000000000000000000000000000000000081525090506129ea565b600082905060005b600082146128bc5780806128a590614010565b915050600a826128b59190613e21565b9150612892565b60008167ffffffffffffffff8111156128fe577f4e487b7100000000000000000000000000000000000000000000000000000000600052604160045260246000fd5b6040519080825280601f01601f1916602001820160405280156129305781602001600182028036833780820191505090505b5090505b600085146129e3576001826129499190613eac565b9150600a85612958919061406d565b60306129649190613d94565b60f81b8183815181106129a0577f4e487b7100000000000000000000000000000000000000000000000000000000600052603260045260246000fd5b60200101907effffffffffffffffffffffffffffffffffffffffffffffffffffffffffffff1916908160001a905350600a856129dc9190613e21565b9450612934565b8093505050505b919050565b600084848484604051602001612a08949392919061399f565b6040516020818303038152906040528051906020012060001c9050949350505050565b60008282604051602001612a409291906136fe565b60405160208183030381529060405280519060200120905092915050565b612a688383612acc565b612a7560008484846126ab565b612ab4576040517f08c379a0000000000000000000000000000000000000000000000000000000008152600401612aab90613a06565b60405180910390fd5b505050565b600080823b905060008111915050919050565b600073ffffffffffffffffffffffffffffffffffffffff168273ffffffffffffffffffffffffffffffffffffffff161415612b3c576040517f08c379a0000000000000000000000000000000000000000000000000000000008152600401612b3390613b46565b60405180910390fd5b612b45816119a0565b15612b85576040517f08c379a0000000000000000000000000000000000000000000000000000000008152600401612b7c90613a26565b60405180910390fd5b612b9160008383612688565b6001600360008473ffffffffffffffffffffffffffffffffffffffff1673ffffffffffffffffffffffffffffffffffffffff1681526020019081526020016000206000828254612be19190613d94565b92505081905550816002600083815260200190815260200160002060006101000a81548173ffffffffffffffffffffffffffffffffffffffff021916908373ffffffffffffffffffffffffffffffffffffffff160217905550808273ffffffffffffffffffffffffffffffffffffffff16600073ffffffffffffffffffffffffffffffffffffffff167fddf252ad1be2c89b69c2b068fc378daa952ba7f163c4a11628f55a4df523b3ef60405160405180910390a45050565b828054612ca690613fad565b90600052602060002090601f016020900481019282612cc85760008555612d0f565b82601f10612ce157805160ff1916838001178555612d0f565b82800160010185558215612d0f579182015b82811115612d0e578251825591602001919060010190612cf3565b5b509050612d1c9190612d20565b5090565b5b80821115612d39576000816000905550600101612d21565b5090565b6000612d50612d4b84613cef565b613cca565b905082815260208101848484011115612d6857600080fd5b612d73848285613f6b565b509392505050565b6000612d8e612d8984613d20565b613cca565b905082815260208101848484011115612da657600080fd5b612db1848285613f6b565b509392505050565b600081359050612dc8816148c5565b92915050565b600081359050612ddd816148dc565b92915050565b600081519050612df2816148dc565b92915050565b600081359050612e07816148f3565b92915050565b600081359050612e1c8161490a565b92915050565b600081519050612e318161490a565b92915050565b600082601f830112612e4857600080fd5b8135612e58848260208601612d3d565b91505092915050565b600082601f830112612e7257600080fd5b8135612e82848260208601612d7b565b91505092915050565b600081359050612e9a81614921565b92915050565b600060208284031215612eb257600080fd5b6000612ec084828501612db9565b91505092915050565b60008060408385031215612edc57600080fd5b6000612eea85828601612db9565b9250506020612efb85828601612db9565b9150509250929050565b600080600060608486031215612f1a57600080fd5b6000612f2886828701612db9565b9350506020612f3986828701612db9565b9250506040612f4a86828701612e8b565b9150509250925092565b60008060008060808587031215612f6a57600080fd5b6000612f7887828801612db9565b9450506020612f8987828801612db9565b9350506040612f9a87828801612e8b565b925050606085013567ffffffffffffffff811115612fb757600080fd5b612fc387828801612e37565b91505092959194509250565b60008060408385031215612fe257600080fd5b6000612ff085828601612db9565b925050602061300185828601612dce565b9150509250929050565b6000806040838503121561301e57600080fd5b600061302c85828601612db9565b925050602061303d85828601612e8b565b9150509250929050565b60006020828403121561305957600080fd5b600061306784828501612de3565b91505092915050565b60006020828403121561308257600080fd5b600061309084828501612df8565b91505092915050565b600080604083850312156130ac57600080fd5b60006130ba85828601612df8565b92505060206130cb85828601612e8b565b9150509250929050565b6000602082840312156130e757600080fd5b60006130f584828501612e0d565b91505092915050565b60006020828403121561311057600080fd5b600061311e84828501612e22565b91505092915050565b60006020828403121561313957600080fd5b600082013567ffffffffffffffff81111561315357600080fd5b61315f84828501612e61565b91505092915050565b60006020828403121561317a57600080fd5b600061318884828501612e8b565b91505092915050565b61319a81613ee0565b82525050565b6131a981613ef2565b82525050565b6131b881613efe565b82525050565b6131cf6131ca82613efe565b614059565b82525050565b60006131e082613d51565b6131ea8185613d67565b93506131fa818560208601613f7a565b6132038161415a565b840191505092915050565b600061321982613d5c565b6132238185613d78565b9350613233818560208601613f7a565b61323c8161415a565b840191505092915050565b600061325282613d5c565b61325c8185613d89565b935061326c818560208601613f7a565b80840191505092915050565b6000613285603283613d78565b91506132908261416b565b604082019050919050565b60006132a8601c83613d78565b91506132b3826141ba565b602082019050919050565b60006132cb601f83613d78565b91506132d6826141e3565b602082019050919050565b60006132ee602483613d89565b91506132f98261420c565b602482019050919050565b6000613311602483613d78565b915061331c8261425b565b604082019050919050565b6000613334601983613d78565b915061333f826142aa565b602082019050919050565b6000613357601283613d89565b9150613362826142d3565b601282019050919050565b600061337a602c83613d78565b9150613385826142fc565b604082019050919050565b600061339d601d83613d89565b91506133a88261434b565b601d82019050919050565b60006133c0600183613d89565b91506133cb82614374565b600182019050919050565b60006133e3600383613d89565b91506133ee8261439d565b600382019050919050565b6000613406603883613d78565b9150613411826143c6565b604082019050919050565b6000613429602a83613d78565b915061343482614415565b604082019050919050565b600061344c602983613d78565b915061345782614464565b604082019050919050565b600061346f602e83613d78565b915061347a826144b3565b604082019050919050565b6000613492600983613d89565b915061349d82614502565b600982019050919050565b60006134b5600283613d89565b91506134c08261452b565b600282019050919050565b60006134d8602083613d78565b91506134e382614554565b602082019050919050565b60006134fb603183613d78565b91506135068261457d565b604082019050919050565b600061351e602c83613d78565b9150613529826145cc565b604082019050919050565b6000613541602983613d78565b915061354c8261461b565b604082019050919050565b6000613564603083613d89565b915061356f8261466a565b603082019050919050565b6000613587602f83613d78565b9150613592826146b9565b604082019050919050565b60006135aa601f83613d78565b91506135b582614708565b602082019050919050565b60006135cd602183613d78565b91506135d882614731565b604082019050919050565b60006135f0601c83613d78565b91506135fb82614780565b602082019050919050565b6000613613603183613d78565b915061361e826147a9565b604082019050919050565b6000613636600283613d89565b9150613641826147f8565b600282019050919050565b6000613659601083613d89565b915061366482614821565b601082019050919050565b600061367c600683613d89565b91506136878261484a565b600682019050919050565b600061369f601e83613d78565b91506136aa82614873565b602082019050919050565b60006136c2600983613d89565b91506136cd8261489c565b600982019050919050565b6136e181613f54565b82525050565b6136f86136f382613f54565b614063565b82525050565b600061370a82856131be565b60208201915061371a82846136e7565b6020820191508190509392505050565b60006137368284613247565b915081905092915050565b600061374d8285613247565b91506137598284613247565b91508190509392505050565b60006137718285613247565b915061377c82613390565b91506137888284613247565b9150613793826133d6565b91508190509392505050565b60006137ab8286613247565b91506137b6826133b3565b91506137c28285613247565b91506137cd826133b3565b91506137d98284613247565b9150819050949350505050565b60006137f28284613247565b91506137fd8261366f565b915081905092915050565b60006138138261334a565b915061381e826132e1565b91506138298261364c565b915061383482613485565b91506138408284613247565b915061384b826134a8565b915081905092915050565b600061386182613557565b915061386d8285613247565b9150613878826136b5565b91506138848284613247565b915061388f82613629565b91508190509392505050565b60006020820190506138b06000830184613191565b92915050565b60006080820190506138cb6000830187613191565b6138d86020830186613191565b6138e560408301856136d8565b81810360608301526138f781846131d5565b905095945050505050565b60006060820190506139176000830186613191565b61392460208301856136d8565b818103604083015261393681846131d5565b9050949350505050565b600060208201905061395560008301846131a0565b92915050565b600060208201905061397060008301846131af565b92915050565b600060408201905061398b60008301856131af565b61399860208301846136d8565b9392505050565b60006080820190506139b460008301876131af565b6139c160208301866136d8565b6139ce6040830185613191565b6139db60608301846136d8565b95945050505050565b600060208201905081810360008301526139fe818461320e565b905092915050565b60006020820190508181036000830152613a1f81613278565b9050919050565b60006020820190508181036000830152613a3f8161329b565b9050919050565b60006020820190508181036000830152613a5f816132be565b9050919050565b60006020820190508181036000830152613a7f81613304565b9050919050565b60006020820190508181036000830152613a9f81613327565b9050919050565b60006020820190508181036000830152613abf8161336d565b9050919050565b60006020820190508181036000830152613adf816133f9565b9050919050565b60006020820190508181036000830152613aff8161341c565b9050919050565b60006020820190508181036000830152613b1f8161343f565b9050919050565b60006020820190508181036000830152613b3f81613462565b9050919050565b60006020820190508181036000830152613b5f816134cb565b9050919050565b60006020820190508181036000830152613b7f816134ee565b9050919050565b60006020820190508181036000830152613b9f81613511565b9050919050565b60006020820190508181036000830152613bbf81613534565b9050919050565b60006020820190508181036000830152613bdf8161357a565b9050919050565b60006020820190508181036000830152613bff8161359d565b9050919050565b60006020820190508181036000830152613c1f816135c0565b9050919050565b60006020820190508181036000830152613c3f816135e3565b9050919050565b60006020820190508181036000830152613c5f81613606565b9050919050565b60006020820190508181036000830152613c7f81613692565b9050919050565b6000602082019050613c9b60008301846136d8565b92915050565b6000604082019050613cb660008301856136d8565b613cc360208301846136d8565b9392505050565b6000613cd4613ce5565b9050613ce08282613fdf565b919050565b6000604051905090565b600067ffffffffffffffff821115613d0a57613d0961412b565b5b613d138261415a565b9050602081019050919050565b600067ffffffffffffffff821115613d3b57613d3a61412b565b5b613d448261415a565b9050602081019050919050565b600081519050919050565b600081519050919050565b600082825260208201905092915050565b600082825260208201905092915050565b600081905092915050565b6000613d9f82613f54565b9150613daa83613f54565b9250827fffffffffffffffffffffffffffffffffffffffffffffffffffffffffffffffff03821115613ddf57613dde61409e565b5b828201905092915050565b6000613df582613f5e565b9150613e0083613f5e565b92508260ff03821115613e1657613e1561409e565b5b828201905092915050565b6000613e2c82613f54565b9150613e3783613f54565b925082613e4757613e466140cd565b5b828204905092915050565b6000613e5d82613f54565b9150613e6883613f54565b9250817fffffffffffffffffffffffffffffffffffffffffffffffffffffffffffffffff0483118215151615613ea157613ea061409e565b5b828202905092915050565b6000613eb782613f54565b9150613ec283613f54565b925082821015613ed557613ed461409e565b5b828203905092915050565b6000613eeb82613f34565b9050919050565b60008115159050919050565b6000819050919050565b60007fffffffff0000000000000000000000000000000000000000000000000000000082169050919050565b600073ffffffffffffffffffffffffffffffffffffffff82169050919050565b6000819050919050565b600060ff82169050919050565b82818337600083830152505050565b60005b83811015613f98578082015181840152602081019050613f7d565b83811115613fa7576000848401525b50505050565b60006002820490506001821680613fc557607f821691505b60208210811415613fd957613fd86140fc565b5b50919050565b613fe88261415a565b810181811067ffffffffffffffff821117156140075761400661412b565b5b80604052505050565b600061401b82613f54565b91507fffffffffffffffffffffffffffffffffffffffffffffffffffffffffffffffff82141561404e5761404d61409e565b5b600182019050919050565b6000819050919050565b6000819050919050565b600061407882613f54565b915061408383613f54565b925082614093576140926140cd565b5b828206905092915050565b7f4e487b7100000000000000000000000000000000000000000000000000000000600052601160045260246000fd5b7f4e487b7100000000000000000000000000000000000000000000000000000000600052601260045260246000fd5b7f4e487b7100000000000000000000000000000000000000000000000000000000600052602260045260246000fd5b7f4e487b7100000000000000000000000000000000000000000000000000000000600052604160045260246000fd5b6000601f19601f8301169050919050565b7f4552433732313a207472616e7366657220746f206e6f6e20455243373231526560008201527f63656976657220696d706c656d656e7465720000000000000000000000000000602082015250565b7f4552433732313a20746f6b656e20616c7265616479206d696e74656400000000600082015250565b7f546f6b656e496420686173206e6f74206265656e206d696e7465642079657400600082015250565b7f226465736372697074696f6e223a22416e204e4654206261736564206f6e205360008201527f5647222c00000000000000000000000000000000000000000000000000000000602082015250565b7f4552433732313a207472616e7366657220746f20746865207a65726f2061646460008201527f7265737300000000000000000000000000000000000000000000000000000000602082015250565b7f4552433732313a20617070726f766520746f2063616c6c657200000000000000600082015250565b7f7b226e616d65223a22535647204e4654222c0000000000000000000000000000600082015250565b7f4552433732313a206f70657261746f7220717565727920666f72206e6f6e657860008201527f697374656e7420746f6b656e0000000000000000000000000000000000000000602082015250565b7f272066696c6c3d277472616e73706172656e7427207374726f6b653d27000000600082015250565b7f2000000000000000000000000000000000000000000000000000000000000000600082015250565b7f272f3e0000000000000000000000000000000000000000000000000000000000600082015250565b7f4552433732313a20617070726f76652063616c6c6572206973206e6f74206f7760008201527f6e6572206e6f7220617070726f76656420666f7220616c6c0000000000000000602082015250565b7f4552433732313a2062616c616e636520717565727920666f7220746865207a6560008201527f726f206164647265737300000000000000000000000000000000000000000000602082015250565b7f4552433732313a206f776e657220717565727920666f72206e6f6e657869737460008201527f656e7420746f6b656e0000000000000000000000000000000000000000000000602082015250565b7f45524337323155524953746f726167653a2055524920736574206f66206e6f6e60008201527f6578697374656e7420746f6b656e000000000000000000000000000000000000602082015250565b7f22696d616765223a220000000000000000000000000000000000000000000000600082015250565b7f227d000000000000000000000000000000000000000000000000000000000000600082015250565b7f4552433732313a206d696e7420746f20746865207a65726f2061646472657373600082015250565b7f45524337323155524953746f726167653a2055524920717565727920666f722060008201527f6e6f6e6578697374656e7420746f6b656e000000000000000000000000000000602082015250565b7f4552433732313a20617070726f76656420717565727920666f72206e6f6e657860008201527f697374656e7420746f6b656e0000000000000000000000000000000000000000602082015250565b7f4552433732313a207472616e73666572206f6620746f6b656e2074686174206960008201527f73206e6f74206f776e0000000000000000000000000000000000000000000000602082015250565b7f3c73766720786d6c6e733d27687474703a2f2f7777772e77332e6f72672f323060008201527f30302f73766727206865696768743d2700000000000000000000000000000000602082015250565b7f4552433732314d657461646174613a2055524920717565727920666f72206e6f60008201527f6e6578697374656e7420746f6b656e0000000000000000000000000000000000602082015250565b7f4f6e6c7920565246436f6f7264696e61746f722063616e2066756c66696c6c00600082015250565b7f4552433732313a20617070726f76616c20746f2063757272656e74206f776e6560008201527f7200000000000000000000000000000000000000000000000000000000000000602082015250565b7f746f6b656e55524920697320616c726561647920616c6c207365742100000000600082015250565b7f4552433732313a207472616e736665722063616c6c6572206973206e6f74206f60008201527f776e6572206e6f7220617070726f766564000000000000000000000000000000602082015250565b7f273e000000000000000000000000000000000000000000000000000000000000600082015250565b7f2261747472696275746573223a22222c00000000000000000000000000000000600082015250565b7f3c2f7376673e0000000000000000000000000000000000000000000000000000600082015250565b7f4e65656420746f207761697420666f7220436861696e6c696e6b205652460000600082015250565b7f272077696474683d270000000000000000000000000000000000000000000000600082015250565b6148ce81613ee0565b81146148d957600080fd5b50565b6148e581613ef2565b81146148f057600080fd5b50565b6148fc81613efe565b811461490757600080fd5b50565b61491381613f08565b811461491e57600080fd5b50565b61492a81613f54565b811461493557600080fd5b5056fe4142434445464748494a4b4c4d4e4f505152535455565758595a6162636465666768696a6b6c6d6e6f707172737475767778797a303132333435363738392b2fa26469706673582212208b4ac0af06c8f70fa30b8343108807ce031cc79830dfbdea3936ff8549cec8bb64736f6c63430008040033",
  "devdoc": {
    "kind": "dev",
    "methods": {
      "approve(address,uint256)": {
        "details": "See {IERC721-approve}."
      },
      "balanceOf(address)": {
        "details": "See {IERC721-balanceOf}."
      },
      "getApproved(uint256)": {
        "details": "See {IERC721-getApproved}."
      },
      "isApprovedForAll(address,address)": {
        "details": "See {IERC721-isApprovedForAll}."
      },
      "name()": {
        "details": "See {IERC721Metadata-name}."
      },
      "ownerOf(uint256)": {
        "details": "See {IERC721-ownerOf}."
      },
      "safeTransferFrom(address,address,uint256)": {
        "details": "See {IERC721-safeTransferFrom}."
      },
      "safeTransferFrom(address,address,uint256,bytes)": {
        "details": "See {IERC721-safeTransferFrom}."
      },
      "setApprovalForAll(address,bool)": {
        "details": "See {IERC721-setApprovalForAll}."
      },
      "supportsInterface(bytes4)": {
        "details": "See {IERC165-supportsInterface}."
      },
      "symbol()": {
        "details": "See {IERC721Metadata-symbol}."
      },
      "tokenURI(uint256)": {
        "details": "See {IERC721Metadata-tokenURI}."
      },
      "transferFrom(address,address,uint256)": {
        "details": "See {IERC721-transferFrom}."
      }
    },
    "version": 1
  },
  "userdoc": {
    "kind": "user",
    "methods": {},
    "version": 1
  },
  "storageLayout": {
    "storage": [
      {
        "astId": 291,
        "contract": "contracts/RandomSVG.sol:RandomSVG",
        "label": "_name",
        "offset": 0,
        "slot": "0",
        "type": "t_string_storage"
      },
      {
        "astId": 293,
        "contract": "contracts/RandomSVG.sol:RandomSVG",
        "label": "_symbol",
        "offset": 0,
        "slot": "1",
        "type": "t_string_storage"
      },
      {
        "astId": 297,
        "contract": "contracts/RandomSVG.sol:RandomSVG",
        "label": "_owners",
        "offset": 0,
        "slot": "2",
        "type": "t_mapping(t_uint256,t_address)"
      },
      {
        "astId": 301,
        "contract": "contracts/RandomSVG.sol:RandomSVG",
        "label": "_balances",
        "offset": 0,
        "slot": "3",
        "type": "t_mapping(t_address,t_uint256)"
      },
      {
        "astId": 305,
        "contract": "contracts/RandomSVG.sol:RandomSVG",
        "label": "_tokenApprovals",
        "offset": 0,
        "slot": "4",
        "type": "t_mapping(t_uint256,t_address)"
      },
      {
        "astId": 311,
        "contract": "contracts/RandomSVG.sol:RandomSVG",
        "label": "_operatorApprovals",
        "offset": 0,
        "slot": "5",
        "type": "t_mapping(t_address,t_mapping(t_address,t_bool))"
      },
      {
        "astId": 1243,
        "contract": "contracts/RandomSVG.sol:RandomSVG",
        "label": "_tokenURIs",
        "offset": 0,
        "slot": "6",
        "type": "t_mapping(t_uint256,t_string_storage)"
      },
      {
        "astId": 79,
        "contract": "contracts/RandomSVG.sol:RandomSVG",
        "label": "nonces",
        "offset": 0,
        "slot": "7",
        "type": "t_mapping(t_bytes32,t_uint256)"
      },
      {
        "astId": 2069,
        "contract": "contracts/RandomSVG.sol:RandomSVG",
        "label": "keyHash",
        "offset": 0,
        "slot": "8",
        "type": "t_bytes32"
      },
      {
        "astId": 2071,
        "contract": "contracts/RandomSVG.sol:RandomSVG",
        "label": "fee",
        "offset": 0,
        "slot": "9",
        "type": "t_uint256"
      },
      {
        "astId": 2073,
        "contract": "contracts/RandomSVG.sol:RandomSVG",
        "label": "tokenCounter",
        "offset": 0,
        "slot": "10",
        "type": "t_uint256"
      },
      {
        "astId": 2075,
        "contract": "contracts/RandomSVG.sol:RandomSVG",
        "label": "maxNumberOfPaths",
        "offset": 0,
        "slot": "11",
        "type": "t_uint256"
      },
      {
        "astId": 2077,
        "contract": "contracts/RandomSVG.sol:RandomSVG",
        "label": "maxNumberOfPathCommands",
        "offset": 0,
        "slot": "12",
        "type": "t_uint256"
      },
      {
        "astId": 2079,
        "contract": "contracts/RandomSVG.sol:RandomSVG",
        "label": "size",
        "offset": 0,
        "slot": "13",
        "type": "t_uint256"
      },
      {
        "astId": 2082,
        "contract": "contracts/RandomSVG.sol:RandomSVG",
        "label": "pathCommands",
        "offset": 0,
        "slot": "14",
        "type": "t_array(t_string_storage)dyn_storage"
      },
      {
        "astId": 2085,
        "contract": "contracts/RandomSVG.sol:RandomSVG",
        "label": "colors",
        "offset": 0,
        "slot": "15",
        "type": "t_array(t_string_storage)dyn_storage"
      },
      {
        "astId": 2089,
        "contract": "contracts/RandomSVG.sol:RandomSVG",
        "label": "requestIdToSender",
        "offset": 0,
        "slot": "16",
        "type": "t_mapping(t_bytes32,t_address)"
      },
      {
        "astId": 2093,
        "contract": "contracts/RandomSVG.sol:RandomSVG",
        "label": "requestIdToTokenId",
        "offset": 0,
        "slot": "17",
        "type": "t_mapping(t_bytes32,t_uint256)"
      },
      {
        "astId": 2097,
        "contract": "contracts/RandomSVG.sol:RandomSVG",
        "label": "tokenIdToRandomNumber",
        "offset": 0,
        "slot": "18",
        "type": "t_mapping(t_uint256,t_uint256)"
      }
    ],
    "types": {
      "t_address": {
        "encoding": "inplace",
        "label": "address",
        "numberOfBytes": "20"
      },
      "t_array(t_string_storage)dyn_storage": {
        "base": "t_string_storage",
        "encoding": "dynamic_array",
        "label": "string[]",
        "numberOfBytes": "32"
      },
      "t_bool": {
        "encoding": "inplace",
        "label": "bool",
        "numberOfBytes": "1"
      },
      "t_bytes32": {
        "encoding": "inplace",
        "label": "bytes32",
        "numberOfBytes": "32"
      },
      "t_mapping(t_address,t_bool)": {
        "encoding": "mapping",
        "key": "t_address",
        "label": "mapping(address => bool)",
        "numberOfBytes": "32",
        "value": "t_bool"
      },
      "t_mapping(t_address,t_mapping(t_address,t_bool))": {
        "encoding": "mapping",
        "key": "t_address",
        "label": "mapping(address => mapping(address => bool))",
        "numberOfBytes": "32",
        "value": "t_mapping(t_address,t_bool)"
      },
      "t_mapping(t_address,t_uint256)": {
        "encoding": "mapping",
        "key": "t_address",
        "label": "mapping(address => uint256)",
        "numberOfBytes": "32",
        "value": "t_uint256"
      },
      "t_mapping(t_bytes32,t_address)": {
        "encoding": "mapping",
        "key": "t_bytes32",
        "label": "mapping(bytes32 => address)",
        "numberOfBytes": "32",
        "value": "t_address"
      },
      "t_mapping(t_bytes32,t_uint256)": {
        "encoding": "mapping",
        "key": "t_bytes32",
        "label": "mapping(bytes32 => uint256)",
        "numberOfBytes": "32",
        "value": "t_uint256"
      },
      "t_mapping(t_uint256,t_address)": {
        "encoding": "mapping",
        "key": "t_uint256",
        "label": "mapping(uint256 => address)",
        "numberOfBytes": "32",
        "value": "t_address"
      },
      "t_mapping(t_uint256,t_string_storage)": {
        "encoding": "mapping",
        "key": "t_uint256",
        "label": "mapping(uint256 => string)",
        "numberOfBytes": "32",
        "value": "t_string_storage"
      },
      "t_mapping(t_uint256,t_uint256)": {
        "encoding": "mapping",
        "key": "t_uint256",
        "label": "mapping(uint256 => uint256)",
        "numberOfBytes": "32",
        "value": "t_uint256"
      },
      "t_string_storage": {
        "encoding": "bytes",
        "label": "string",
        "numberOfBytes": "32"
      },
      "t_uint256": {
        "encoding": "inplace",
        "label": "uint256",
        "numberOfBytes": "32"
      }
    }
  }
}